:040000000200B63212
:03000B0002019C53
:0100130032BA
:01001B0032B2
:0100230032AA
:01002B0032A2
:01003300329A
:01003B003292
:0300430002012592
:200048000000E2FBEAF2802C0000E0FBEAF08024E6B50202EBF62200E2B50202EBF222009E
:20006800E0B50202EBF02230F6E0A88220F5D3EAC6F582228B822230F6E6A88220F5D980AE
:01008800CFA8
:02010F00C2002C
:030122000200894F
:030089000201DD94
:20012500C021C0E0C0F0C082C083C007C006C005C004C003C002C001C000C0D075D0001201
:20014500061ED0D0D000D001D002D003D004D005D006D007D083D082D0F0D0E0D021020032
:200165008C20000122C200900001E0FFBF0127900002E0FFBF011F900003E0FF900004E05C
:20018500F513900005E0F514900006E0F5158F821214B102152B22C021C0E0C0F0C082C0D5
:2001A50083C007C006C005C004C003C002C001C000C0D075D00012027ED0D0D000D001D023
:2001C50002D003D004D005D006D007D083D082D0F0D0E0D02102008C12026C209103120213
:2001E500AA120296120889120E845396EF439710C2B47F00BF0600503075131475140075C9
:2002050015148F82C0071214B112152B9000A612023BD0077513007514007515008F82C0E7
:16022500071214B1D0070F80CB12152BD2AF120EBA12016680F816
:20023B00AE82AF83EE4F6011E5C330E7FBE5C320E7FB1EBEFF011F80EB22C2A9781E86829E
:20025B00088683D2A92275A15575A1AA2275A1002275A15575A1AA74F855B94406F5B9753E
:20027B00A10022758A30758CF8781E8606088607781E74012EF6E43F08F622758A30758C1F
:0F029B00F8438901781EE4F608F6D2A9D28C2226
:1802AA0075E200C2AF90000112023B02380075A15575A1AA43B1102209
:2002C20075130A7514007515007582000214B17F10EF6004001F80F922A291B39201E4338D
:2002E200F539758200120E37A297B39201E433F539758201120E37A296B39201E433F539AA
:20030200758202120E37A295B39201E433F539758203120E37A294B39201E433F5397582C0
:2003220004120E37A2B2B39201E433F539758205120E37A2B3B39201E433F539758206123F
:1C0342000E37A2B0B39201E43325E0FFA2B1B39201E4334FF51175820002137F17
:2015E3003A0000003B0000003C000000F12D0000E9330000E92D000000000001E93A0000C3
:20160300F13A0000FFFFFFFFFFFFFFFFFFFFFFFFFFFFFFFFFFFFFFFFFFFFFFFFFFFFFFFFB8
:0B1623003D0000003E0000000408072E
:20035E009001B2E024F750047F0880059001B2E0FF8FDDE5DD602B850813850914751580BA
:20037E0085DD167517009000DE75F0001215369001B2E0C395DDF0E5DD2508F508E43509D5
:20039E00F5092275DCC09001B2E4F09000DFE0FF24F45003020536EF240A83F582EF2410C7
:2003BE0083F583E473909D36053667DB368373361F0404050505040305040405059000E1C6
:2003DE00E0FFBF0102800ABF02028013BF2257801C9001B27412F075082E7509168047905B
:2003FE0001B2745BF075084075091680399000E2E0FF600ABF01028013BF022A801C90013B
:20041E00B2742DF075089B750916801A9001B27415F07508C8750916800C9001B27419F054
:20043E007508DD7509169001B2E070030205369000E4E0FF9001B2E0FEC3EF9E5005900133
:20045E00B2EFF043D10202035E9000E0E09001B2F053D1FD22E5E3547FFF9000E0E003546D
:20047E00804FF5E322E5E32354019000DEF075DD01229000DEE4F09000DFF075DD022290DB
:20049E0000DEE0FFBFA10280030205369000E2E0FF6008BF010280290205367F00BF0800B8
:2004BE00501BEF24DEFDE43400FEEF249EF582E43401F583E08D828E83F00F80E075DD083D
:2004DE00227F00BF0800501BEF24DEFDE43400FEEF24A8F582E43401F583E08D828E83F074
:2004FE000F80E075DD08229000DEE0FFBFA1299000E2E07023A202E4339000DEF075DD01CC
:20051E00229000DEE0FFBF210F9000E2E070099000E0E024FF92022243DC0F229001B2E0F8
:20053E00700122E5D130E10712035E63DC4022748055E3FF9001B2E04FF5E32222AF82C27C
:20055E00EAEF249EF582E43401F583E0FFD2EA8F8222AF82C2EAEF249EF582E43401F58376
:20057E00E50AF0D2EA02058653D2FC2253D2FCE5D230E1FB2274FC55D24402F5D222AF82F5
:20059E00C2EAEF75F002A424A8F582740135F0F583E513F0E514A3F0D2EA53D4FCE5D43006
:2005BE00E1FB2274FC55D44402F5D422C2EA75134175140075150075164075170090015E87
:2005DE0075F000121536D2EA53DEFCE5DE30E1FB22C2EA75131E75140175150075164075BB
:2005FE00170090000175F000121536D2EA2274FC55DE4402F5DE221205EF53DEF3D2002299
:20061E0020D90302086675DD00E5D9540FFFAED9530630BE0003020854BE2003020800BE06
:20063E0030028003020864EF600302086475DCC09001B2E4F09000DFE0FE24F450030207D0
:20065E00FBEE240A83F582EE241083F583E4734655FBC3FB1485FB3623FBE10707070707B7
:20067E00070607070707079000E1E0FEBE0102800ABE02028013BE2257801C9001B27412A1
:20069E00F075082E75091680479001B2745BF075084075091680399000E2E0FE600ABE01C1
:2006BE00028013BE022A801C9001B2742DF075089B750916801A9001B27415F07508C87571
:2006DE000916800C9001B27419F07508DD7509169001B2E070030207FB9000E4E0FE900126
:2006FE00B2E0FDC3EE9D50059001B2EEF043D10212035E0208649000E0E0FE9001B2F053BE
:20071E00D1FD020864E5E3547FFE9000E0E0035480FD4EF5E3020864E5E3235401FE900060
:20073E00DEF075DD010208649000DEE4F09000DFF075DD020208649000DEE0FEBEA102807C
:20075E00030207FB9000E2E0FE6008BE0102802C0207FB7E00BE0800501CEE24DEFCE43497
:20077E0000FDEE249EF582E43401F583E0FB8C828D83F00E80DF75DD080208647E00BE0844
:20079E0000501CEE24DEFCE43400FDEE24A8F582E43401F583E0FB8C828D83F00E80DF7541
:2007BE00DD080208649000DEE0FEBEA1309000E2E0FE7029A202E433FE9000DEF075DD019A
:2007DE000208649000DEE0FEBE21129000E2E0FE700B9000E0E0FE24FF9202806943DC0F69
:2007FE008064BF0002800FBF0102802CBF02028031BF045280369001B2E0604AE5D130E166
:20081E000812035E63DC40803D748055E3FE9001B2E0FD4EF5E3802E74FC55D24402F5D241
:20083E00802474FC55D44402F5D4801A74FC55DE4402F5DE8010BF0002800BBF040812053A
:20085E00EF53DEF3D200C2D930D8139001B2E4F0D20275DC0275E300C2DAC2D9C2D810DA8E
:20087E000122E5DA20E20375D8FF2243E20653E2FD7F08EF60381FEF24DEF582E43400F506
:20089E0083E4F0EF249EF582E43401F583E4F08F0675F002EE847D0025E0FEED33FDEE2439
:2008BE00A8F582ED3401F583E4F0A3F080C59001B2E4F0D20275E22975D18175DD0075ECD0
:2008DE00DE75ED0075D30875EE9E75EF0175D21275EA4075D50875E4A875E50175D41A7586
:1108FE00DF4075DE1275EB0443EA0C75E107D2EA228D
:20162E001201100100000008FECABEBA00010000000109025B00030100C0320904000001C4
:20164E0003010100092111010001222D000705810308000109040100010300000009211105
:20166E000100012215000705820308000109040200020300000009211101000122190007F6
:20168E000584034000010705040340000105010906A101050719E029E71500250175019509
:2016AE0008810295017508810195067508150025650507190029658100C0050C0901A10194
:2016CE007510950426FF0319002AFF038100C00600FF0901A1018501150026FF00750895AD
:0816EE003F8100953F9100C00F
:070111009000D2E4F0A3F01E
:20090F009000D2E0FEA3E08E82F5832275820022AF827E007D02BD080050308D82C007C039
:20092F0006C00512055BAC82D005D006D007ECB50708EE540F7003ED4206EC700BEE54F079
:20094F007006EDC454F042060D80CB8E8222AF827E007D08ED70030209F91D8DF005F07BA9
:20096F00017C008006EB2BFBEC33FCD5F0F78F017A00E95203EA5204EB4C604BE522601D8F
:20098F00ED24D6FBE43400FCED24D6F582E43400F583E0FA0A8B828C83EAF0802AED24D6F9
:2009AF00FBE43400FC8B828C83E0601BED24D6FBE43400FCED24D6F582E43400F583E0FAE4
:2009CF001A8B828C83EAF0ED24D6FBE43400FC8B828C83E060027401FC8DF005F0EC800253
:2009EF0025E0D5F0FB4206020963758200C00612055BAF82D006EFB50601228E0A758200DB
:200A0F00020570AF82758200C00712055BAE82D0077D00E5236005EF4EFD80287F08EF6046
:200A2F00231FEF24D6FBE43400FC8B828C83E060027401FC8FF005F0EC800225E0D5F0FBF7
:200A4F00420580DAEEB50501228D0A758200020570AF82C00712091FAE82D007740F5EFDFF
:200A6F005306F0E4CEC4540F6ECE540FCE6ECE30E30244F0E5246006ED7003EE7008E52415
:200A8F007003ED700122E52470028D06E5247001FF8F0A8E82120570120255E5828583F0D5
:200AAF009000D2F0E5F0A3F02285822512115285822685832785F02874022526F9E43527B7
:200ACF00FAAB2889828A838BF01215C3FB75F005A424A5F9740035F0FA89298A2A7401255F
:200AEF0026F8E43527F9AA28888289838AF01215C37041E525703DA826A927AA28888289D9
:200B0F00838AF01215C3602C74012529F9E4352AFA8B82C002C001120EC6A882AB83AEF0EE
:200B2F00FFD001D00289828A83E8F0EBA3F0EEA3F0EFA3F074012529FEE4352AFF8E828FF1
:200B4F0083E0FAA3E0FBA3E0FCA3E08A828B838CF0C007C00612091BE582D006D007705A72
:200B6F008E828F83E0FEA3E0FFA3E0FDA3E0FCA926AA27AB2889828A838BF01215C3F536CA
:200B8F008E828F838DF0ECC003C002C001120CAED001D002D003AE29AF2A8E828F83E0FD84
:200BAF005305FB89828A838BF01215C325E025E042058E828F83EDF080127401B52505120E
:200BCF00025580087402B5250312115912058A7402B5250312117112114BE412158B0211B9
:200BEF008F121144E582700D12113DE5826006758201020AB8121144E582601A12113DE596
:200C0F00826008758202120AB880EA121171758200120AB880DF22E582FF75F005A424A587
:200C2F00FD740035F0FEE52C70578D348E35853482853583E030E24974012DF532E43EF522
:200C4F0033853282853383E0FAA3E0FCA3E0FDA3E0FE7536008A828C838DF0EE120CAE8502
:200C6F003482853583E0FE5306FB853482853583EEF0853282853383E4F0A3F0A3F0A3F0E9
:200C8F0022852C2D752E008F2F120255E5828583F0F53085F03190002D75F04002122BAC04
:200CAF0082AD83AEF0FF780079008E02741F5FFBB8000BB90008BAFF05BB1F028057E4741B
:200CCF001F5FFB6030E53660178B82C007C006C005C00412104FD004D005D006D0078015EB
:200CEF008B82C007C006C005C004121068D004D005D006D0078E028A00E8FB601885362290
:200D0F008B82C007C006C005C00412095DD004D005D006D0078D0189038C028A01741F59B4
:200D2F00F53789005300E0B8C0028008B8E002803D020DDAE536700122BB0002800BBB01C8
:200D4F00028012BB02028013228537821210327582000210468537820210828537F005F028
:200D6F007401800225E0D5F0FBF58202104674075AF5388B007A00E828F8EA33FAE828F8AB
:200D8F00EA33FA530418E4FDFEFFEDC423CCC423541F6CCC541FCC6CCCFDEEC42354E04DE4
:200DAF00FDEFC423CEC423541F6ECE541FCE6ECEEC48FEED4AFF7401B53835E5367002FEE6
:200DCF00FF8E138F1475820002059CEB600C8536228B82C00112095DD001E96008853624AC
:200DEF008982120A60E5367007F523F582020A1222AC82AD83AEF0FF7536018C828D838EA9
:200E0F00F0EFC007C006C005C004120CAE12058AD004D005D006D0077536008C828D838EB4
:200E2F00F0EF120CAE02058AE582FF75F005A424A5FD740035F0FE8D828E83E0FCFA53024B
:200E4F0002E4A2E713CA13CAEAB5391974015CB539012274FE5C45398D828E83F085392C41
:200E6F008F82020C265304FDE539253942048D828E83ECF0227F09EF60141FEF75F005A4E3
:200E8F0024A5F582740035F0F583E4F080E97F08EF600F1FEF24D6F582E43400F583E4F0ED
:170EAF0080EE12135B12134D0202C21202DB90000512023B020BF036
:0A0118009000D4E4F09000D504F04C
:200EC600AF827DFF7EFF8E0B8E0CEF2F25E0FF7A018A82C007C006C005C0021210D5E58294
:200EE600D002D005D006D0077003020F76EA75F024A424E3F8741535F0F9EF28F582E43936
:200F0600F583E493F50DA3E493F50EA3E493F50FA3E493F510C4540FF879007B007C00B839
:200F26000E2CB90029BB0026BC00238D038E04E4BBFF04BCFF0104FBA90BAC0CE4B9FF0444
:200F4600BCFF01046B6007900000E4F5F0228D038E04BBFF0BBCFF08AB0FAC108B058C063C
:200F6600AB0BAC0CBBFF09BCFF06850D0B850E0C8A041AEC601A8D038E04BBFF06BCFF038F
:200F8600020ED7AB0BAC0CBBFF06BCFF03020ED78D048E07BCFF07BFFF047D007E00AB0B36
:200FA600AC0CBBFF08BCFF05E4F50BF50C8E048D077D007E00A80BA90CE4FAFBE84205E992
:200FC6004206EA4207EB42048D828E838FF0EC227F017E01EE60198E82C007C0061210D5B8
:200FE600E582D006D00760038F82221E8E0780E4758200227F007E00BE0200502A8EF00557
:20100600F07C017D008006EC2CFCED33FDD5F0F79000D5E07B005204EB5205EC4D60038FEA
:2010260082220E8E0780D17582002222AF828FF005F07401800225E0D5F0FBF58202109954
:20104600E5829000D4F0021031AF828FF005F07401800225E0D5F0FBFF9000D4E04FF002A7
:201066001031AF828FF005F07401800225E0D5F0FBF4FF9000D4E05FF0021031AF82C00707
:2010860012110AE582D00760058F8202104F8F82021068E5829000D5F0021031AF828FF0CE
:2010A60005F07401800225E0D5F0FBFF9000D5E04FF0021031AF828FF005F07401800225F2
:2010C600E0D5F0FBF4FF9000D5E05FF0021031AF829000D4E0FE9000D5E042068FF005F02C
:2010E6007F017D008006EF2FFFED33FDD5F0F77C00EE5207EC5205EF4DB40100B39203E44E
:2011060033F58222AF829000D4E0FE9000D5E042068FF005F07F017D008006EF2FFFED33C9
:17112600FDD5F0F77C00EE5207EC5205E4BF0004BD000104F58222F1
:20113D009000A2E0F582229000A3E0F582229000A475F0002290000275F000229000A2E055
:20115D0075F005A42402FEE43400FF7D008E828F838DF0229000A3E07001229000A2E0FF34
:20117D000F9000A2EFF09000A3E0FF1F9000A3EFF0229000A2E07001227F009000A2E0FE99
:20119D007D009000A3E07B002EFEEB3DFD1EBEFF011D8F037C00C3EB9EEC64808DF063F0E3
:2011BD008095F05052EF75F005A42402FDE43400FE7A0074012BF513E43CF514900005C095
:2011DD0007C006C005C0021215A6AB82AC83D002D005D006EB2402FBEC3400FC8B138C1492
:2011FD007515007516057517008D828E838AF0121536D0070F80849000A3E0FF9000A2E027
:20121D00FE1EEE2F9000A3F09000A2E4F022AD82AE83AFF09000A2E0FC7B009000A3E07A18
:20123D00002CF513EA3BF514900005C007C006C0051215A6AB82AC83D005D006D007EB248E
:20125D0002FBEC3400FC7A008D138E148F157516058A178B828C838AF01215369000A3E0C1
:20127D00FF0F9000A3EFF0229000A3E07001227F009000A3E0FE7D001EBEFF011D8F037C55
:20129D0000C3EB9EEC64808DF063F08095F0400302132D9000A2E0FE7D00EB2EF513EC3DE4
:2012BD00F514900005C007C004C0031215A6AD82AE83D003D004ED2402FDEE3400FE7A00A7
:2012DD009000A2E0F87900EB28FBEC39FC74012BF513E43CF514900005C006C005C002127A
:2012FD0015A6AB82AC83D002D005D006EB2402FBEC3400FC8B138C14751500751605751731
:20131D00008D828E838AF0121536D0070F02128E9000A3E0FF1F9000A3EFF0229000A3E0B9
:1E133D00FF9000A2E02F9000A3F09000A2E4F0229000A2E4F09000A3F09000A4F02298
:20135B007F01EF600F1FEF2401F582E43400F583E4F080EE7F01EF600A1F8F82758300E433
:20137B00F080F322AF827E008F058D04530403EC2CFCE51124FE5009AB117405C39BFB800C
:20139B0002AB118B1275F004ED84FDF582758300E0FA8CF005F0EA8002C313D5F0FB5403ED
:2013BB00FAB51202804BEAC39512FA8D0079008D82758300E0FD8CF005F07403800225E0DD
:2013DB00D5F0FBF452058CF005F0E512800225E0D5F0FB420588828983EDF0BAFF028003C0
:2013FB00BA03047E01800ABA01028003BAFD027EFFEE700122EF2401F582E43400F583E016
:20141B00FD33E433FCEE33E433FBECB5030280048E058003EE2DFDED606FEF75F003A42408
:20143B002BFC741635F0FE8C828E83E493F5F0EDC2D530E704D2D5F40484E5F030D502F4B0
:20145B00047046C374808DF063F08095F0500B8C828E83A3A3E493FB80088C828E83A3E4CB
:20147B0093FB8B067D00EE6020752C018E82C007C006C005120C26D005D006752C008E82A3
:16149B00C005120C26D005D007EF2401F582E43400F583EDF0226C
:2014B100AF82BF0600400122EF75F003A4FF2481F582E43400F583E514F0EF042481F58224
:2014D100E43400F583E513F00F0FEF2481F582E43400F583E515F022AF82900081E0A37B7E
:2014F10008334019D2B4000000000000C2B4000000000000000000000000008018D2B4002D
:201511000000000000000000000000000000C2B40000000000DBCADFC422C2AF758212124E
:0515310014E9D2AF2215
:0600E500E478FFF6D8FDEF
:20153600AD82AE83AFF08D188E198F1A85131B85141C85151DA816A9178803890418B8FF1D
:201556000119EB4C6025851B82851C83851DF01215C3FCA385821B85831C8D828E838FF059
:15157600EC12158BA3AD82AE8380CE851882851983851AF02280
:2000C3007900E94400601B7A009016F6789375A000E493F2A308B8000205A0D9F4DAF27545
:0200E300A0FF7C
:20008C00C000A88118C0D0B6001B18B648004015B66F005010C0E0E65407B406005004E62D
:0A00AC0054F8F6D0E0D0D0D00032B6
:1B158B0020F71130F6138883A88220F509F6A8837583002280FEF280F5F0225F
:1D15A600E5828513F0A4C582C0F08514F0A4D0F025F0C5838513F0A42583F58322E6
:2000EB007800E84400600A790175A000E4F309D8FC7892E84400600C7901900001E4F0A380
:04010B00D8FCD9FA49
:0D00B6007581391215DFE5826003020089B3
:1C15C30020F71430F6148883A88220F507E6A88375830022E280F7E49322E02237
:0415DF0075820022EF
:00000001FF
